:100000000C943E000C945B000C945B000C945B0021
:100010000C945B000C945B000C945B000C945B00F4
:100020000C945B000C945B000C945B000C945B00E4
:100030000C945B000C945B000C945B000C945B00D4
:100040000C945B000C945B000C945B000C945B00C4
:100050000C945B000C945B000C945B000C945B00B4
:100060000C945B000C945B000C945B000C945B00A4
:100070000C945B000C945B000C945B0011241FBE7D
:10008000CFEFD8E0DEBFCDBF11E0A0E0B1E0ECE7FC
:10009000F2E002C005900D92AE30B107D9F721E031
:1000A000AEE0B1E001C01D92A431B207E1F70E94B9
:1000B00060000C943C010C9400000E94EE00089536
:1000C0000E945D000E94B10081B1867F81B980B13C
:1000D000896080B984B1896084B985B1867F85B92A
:1000E00026982E9882B18170E82E82B18870F82E01
:1000F00009E110E0D2B1D170C2B1C870ED1631F093
:1001000084E50E94150101501109ED2EFC1631F015
:1001100084E50E94150101501109FC2EC801880FC9
:10012000991F880F991F880F991FE801CC0FDD1FB9
:10013000C80FD91FCC50DE4F80E10E94D900C817EC
:10014000D90730F488E40E941501289A2B98D2CF61
:100150008C179D0778F681E40E9415012B9A289848
:10016000C9CFE4E6F0E080818E7F808310927C002E
:1001700081E880937A0010927B0080E00895ECE79C
:10018000F0E09081907E90839081892B8083EAE7D4
:10019000F0E0808180648083089580917A00829568
:1001A00081700895809178002091790090E0922BE1
:1001B00008950E94BF000E94CD008823E1F30E94B1
:1001C000D200EAE7F0E02081206120830895509872
:1001D0005898519A59980E94180108958FEF80936A
:1001E000640091B111B892B182B994B114B895B1CB
:1001F00085B997B117B898B188B99AB11AB89BB1B7
:100200008BB940E060E881E690E00E940E0113BEE9
:1002100015BE0E94B1000E94E70008952FB7F89420
:10022000FC01608340832FBF08950E942F01089531
:10023000E4E6F0E080818D7F80831092C50083E347
:100240008093C4001092C00088E98093C10080E0D0
:1002500091E0909311018093100180E00895E0EC0B
:10026000F0E0908195FFFDCF8093C60008950E9435
:0C0270002F0180E090E00895F894FFCF8B
:0E027C0000000002000000003701000000003A
:00000001FF
