S011000053696D756C61746F722E7372656353
S11300000C943E000C945B000C945B000C945B001D
S11300100C945B000C945B000C945B000C945B00F0
S11300200C945B000C945B000C945B000C945B00E0
S11300300C945B000C945B000C945B000C945B00D0
S11300400C945B000C945B000C945B000C945B00C0
S11300500C945B000C945B000C945B000C945B00B0
S11300600C945B000C945B000C945B000C945B00A0
S11300700C945B000C945B000C945B0011241FBE79
S1130080CFEFD8E0DEBFCDBF11E0A0E0B1E0E0E704
S1130090F2E002C005900D92AE30B107D9F721E02D
S11300A0AEE0B1E001C01D92A431B207E1F70E94B5
S11300B060000C9436010C9400000E94E80008953E
S11300C00E945D000E94AB0081B1867F81B984B13A
S11300D0896084B9269815B880B18170E82E80B102
S11300E08870F82E09E110E0D0B1D170C0B1C870A9
S11300F0ED1631F084E50E940F010F5F1F4FED2EC6
S1130100FC1631F084E50E940F0101501109FC2E08
S1130110C801880F991F880F991F880F991FE8013C
S1130120CC0FDD1FC80FD91FCC50DE4F80E10E94D9
S1130130D300C817D90730F488E40E940F01289A25
S11301402B98D2CF8C179D0778F681E40E940F017B
S11301502B9A2898C9CFE4E6F0E080818E7F8083D3
S113016010927C0081E880937A0010927B0080E0FA
S11301700895ECE7F0E09081907E90839081892B44
S11301808083EAE7F0E08081806480830895809131
S11301907A00829581700895809178002091790089
S11301A090E0922B08950E94B9000E94C700882312
S11301B0E1F30E94CC00EAE7F0E020812061208393
S11301C0089550985898519A59980E941201089588
S11301D08FEF8093640091B111B892B182B994B158
S11301E014B895B185B997B117B898B188B99AB1CF
S11301F01AB89BB18BB940E060E881E690E00E94B8
S1130200080113BE15BE0E94AB000E94E1000895D0
S11302102FB7F894FC01608340832FBF08950E9498
S113022029010895E4E6F0E080818D7F80831092B7
S1130230C50083E38093C4001092C00088E98093D2
S1130240C10080E091E0909311018093100180E05F
S11302500895E0ECF0E0908195FFFDCF8093C60017
S113026008950E94290180E090E00895F894FFCF5A
S1110270000000020000000031010000000048
S9030000FC
